{
  "contractName": "insurance",
  "abi": [
    {
      "constant": true,
      "inputs": [],
      "name": "authorityAgency",
      "outputs": [
        {
          "name": "",
          "type": "address"
        }
      ],
      "payable": false,
      "stateMutability": "view",
      "type": "function",
      "signature": "0x2f62ac19"
    },
    {
      "constant": true,
      "inputs": [],
      "name": "compensation",
      "outputs": [
        {
          "name": "",
          "type": "uint256"
        }
      ],
      "payable": false,
      "stateMutability": "view",
      "type": "function",
      "signature": "0x40d5ff58"
    },
    {
      "constant": true,
      "inputs": [
        {
          "name": "",
          "type": "address"
        }
      ],
      "name": "clients",
      "outputs": [
        {
          "name": "isPurchased",
          "type": "bool"
        },
        {
          "name": "shouldCompensate",
          "type": "bool"
        },
        {
          "name": "isCompensated",
          "type": "bool"
        },
        {
          "name": "purchasedTime",
          "type": "uint256"
        }
      ],
      "payable": false,
      "stateMutability": "view",
      "type": "function",
      "signature": "0x61eed2a9"
    },
    {
      "constant": true,
      "inputs": [],
      "name": "company",
      "outputs": [
        {
          "name": "",
          "type": "address"
        }
      ],
      "payable": false,
      "stateMutability": "view",
      "type": "function",
      "signature": "0x6904c94d"
    },
    {
      "constant": true,
      "inputs": [],
      "name": "validPeriod",
      "outputs": [
        {
          "name": "",
          "type": "uint256"
        }
      ],
      "payable": false,
      "stateMutability": "view",
      "type": "function",
      "signature": "0x7efcc3a2"
    },
    {
      "constant": true,
      "inputs": [],
      "name": "price",
      "outputs": [
        {
          "name": "",
          "type": "uint256"
        }
      ],
      "payable": false,
      "stateMutability": "view",
      "type": "function",
      "signature": "0xa035b1fe"
    },
    {
      "inputs": [
        {
          "name": "_price",
          "type": "uint256"
        },
        {
          "name": "_compensation",
          "type": "uint256"
        },
        {
          "name": "_validPeriod",
          "type": "uint256"
        },
        {
          "name": "_authorityAgency",
          "type": "address"
        }
      ],
      "payable": true,
      "stateMutability": "payable",
      "type": "constructor",
      "signature": "constructor"
    },
    {
      "constant": false,
      "inputs": [],
      "name": "refund",
      "outputs": [],
      "payable": true,
      "stateMutability": "payable",
      "type": "function",
      "signature": "0x590e1ae3"
    },
    {
      "constant": false,
      "inputs": [
        {
          "name": "amount",
          "type": "uint256"
        }
      ],
      "name": "getProfit",
      "outputs": [],
      "payable": false,
      "stateMutability": "nonpayable",
      "type": "function",
      "signature": "0xa91b2e9f"
    },
    {
      "constant": false,
      "inputs": [
        {
          "name": "beneficiary",
          "type": "address"
        }
      ],
      "name": "authenticateCompensation",
      "outputs": [],
      "payable": false,
      "stateMutability": "nonpayable",
      "type": "function",
      "signature": "0xe1206034"
    },
    {
      "constant": false,
      "inputs": [],
      "name": "purchase",
      "outputs": [],
      "payable": true,
      "stateMutability": "payable",
      "type": "function",
      "signature": "0x64edfbf0"
    },
    {
      "constant": false,
      "inputs": [],
      "name": "getCompensation",
      "outputs": [],
      "payable": false,
      "stateMutability": "nonpayable",
      "type": "function",
      "signature": "0x076aa026"
    }
  ],
  "bytecode": "0x6080604052604051608080610ffb8339810180604052608081101561002357600080fd5b810190808051906020019092919080519060200190929190805190602001909291908051906020019092919050505083600081905550826001819055508160028190555080600360006101000a81548173ffffffffffffffffffffffffffffffffffffffff021916908373ffffffffffffffffffffffffffffffffffffffff16021790555033600460006101000a81548173ffffffffffffffffffffffffffffffffffffffff021916908373ffffffffffffffffffffffffffffffffffffffff16021790555050505050610eff806100fc6000396000f3fe6080604052600436106100b9576000357c01000000000000000000000000000000000000000000000000000000009004806364edfbf01161008157806364edfbf0146101e75780636904c94d146101f15780637efcc3a214610248578063a035b1fe14610273578063a91b2e9f1461029e578063e1206034146102d9576100b9565b8063076aa026146100be5780632f62ac19146100d557806340d5ff581461012c578063590e1ae31461015757806361eed2a914610161575b600080fd5b3480156100ca57600080fd5b506100d361032a565b005b3480156100e157600080fd5b506100ea610693565b604051808273ffffffffffffffffffffffffffffffffffffffff1673ffffffffffffffffffffffffffffffffffffffff16815260200191505060405180910390f35b34801561013857600080fd5b506101416106b9565b6040518082815260200191505060405180910390f35b61015f6106bf565b005b34801561016d57600080fd5b506101b06004803603602081101561018457600080fd5b81019080803573ffffffffffffffffffffffffffffffffffffffff169060200190929190505050610786565b6040518085151515158152602001841515151581526020018315151515815260200182815260200194505050505060405180910390f35b6101ef6107dd565b005b3480156101fd57600080fd5b50610206610aff565b604051808273ffffffffffffffffffffffffffffffffffffffff1673ffffffffffffffffffffffffffffffffffffffff16815260200191505060405180910390f35b34801561025457600080fd5b5061025d610b25565b6040518082815260200191505060405180910390f35b34801561027f57600080fd5b50610288610b2b565b6040518082815260200191505060405180910390f35b3480156102aa57600080fd5b506102d7600480360360208110156102c157600080fd5b8101908080359060200190929190505050610b31565b005b3480156102e557600080fd5b50610328600480360360208110156102fc57600080fd5b81019080803573ffffffffffffffffffffffffffffffffffffffff169060200190929190505050610ce3565b005b60011515600560003373ffffffffffffffffffffffffffffffffffffffff1673ffffffffffffffffffffffffffffffffffffffff16815260200190815260200160002060000160019054906101000a900460ff1615151415156103f5576040517f08c379a00000000000000000000000000000000000000000000000000000000081526004018080602001828103825260208152602001807f596f752063616e206e6f74206765742074686520636f6d70656e736174696f6e81525060200191505060405180910390fd5b60001515600560003373ffffffffffffffffffffffffffffffffffffffff1673ffffffffffffffffffffffffffffffffffffffff16815260200190815260200160002060000160029054906101000a900460ff1615151415156104a3576040517f08c379a0000000000000000000000000000000000000000000000000000000008152600401808060200182810382526025815260200180610e216025913960400191505060405180910390fd5b426201518060025402600560003373ffffffffffffffffffffffffffffffffffffffff1673ffffffffffffffffffffffffffffffffffffffff1681526020019081526020016000206001015401111515610565576040517f08c379a000000000000000000000000000000000000000000000000000000000815260040180806020018281038252601d8152602001807f596f757220696e737572616e6365206973206f7574206f66206461746500000081525060200191505060405180910390fd5b670de0b6b3a7640000600154023073ffffffffffffffffffffffffffffffffffffffff1631101515156105e3576040517f08c379a0000000000000000000000000000000000000000000000000000000008152600401808060200182810382526037815260200180610dea6037913960400191505060405180910390fd5b6001600560003373ffffffffffffffffffffffffffffffffffffffff1673ffffffffffffffffffffffffffffffffffffffff16815260200190815260200160002060000160026101000a81548160ff0219169083151502179055503373ffffffffffffffffffffffffffffffffffffffff166108fc670de0b6b3a7640000600154029081150290604051600060405180830381858888f19350505050158015610690573d6000803e3d6000fd5b50565b600360009054906101000a900473ffffffffffffffffffffffffffffffffffffffff1681565b60015481565b600460009054906101000a900473ffffffffffffffffffffffffffffffffffffffff1673ffffffffffffffffffffffffffffffffffffffff163373ffffffffffffffffffffffffffffffffffffffff16141515610784576040517f08c379a000000000000000000000000000000000000000000000000000000000815260040180806020018281038252601e8152602001807f6f6e6c792074686520636f6d70616e792073686f756c6420726566756e64000081525060200191505060405180910390fd5b565b60056020528060005260406000206000915090508060000160009054906101000a900460ff16908060000160019054906101000a900460ff16908060000160029054906101000a900460ff16908060010154905084565b60001515600560003373ffffffffffffffffffffffffffffffffffffffff1673ffffffffffffffffffffffffffffffffffffffff16815260200190815260200160002060000160009054906101000a900460ff161515148061088a5750426201518060025402600560003373ffffffffffffffffffffffffffffffffffffffff1673ffffffffffffffffffffffffffffffffffffffff168152602001908152602001600020600101540111155b806108e8575060011515600560003373ffffffffffffffffffffffffffffffffffffffff1673ffffffffffffffffffffffffffffffffffffffff16815260200190815260200160002060000160029054906101000a900460ff161515145b151561093f576040517f08c379a0000000000000000000000000000000000000000000000000000000008152600401808060200182810382526026815260200180610eae6026913960400191505060405180910390fd5b670de0b6b3a764000060005402341415156109a5576040517f08c379a000000000000000000000000000000000000000000000000000000000815260040180806020018281038252602f815260200180610e7f602f913960400191505060405180910390fd5b6001600560003373ffffffffffffffffffffffffffffffffffffffff1673ffffffffffffffffffffffffffffffffffffffff16815260200190815260200160002060000160006101000a81548160ff02191690831515021790555042600560003373ffffffffffffffffffffffffffffffffffffffff1673ffffffffffffffffffffffffffffffffffffffff168152602001908152602001600020600101819055506000600560003373ffffffffffffffffffffffffffffffffffffffff1673ffffffffffffffffffffffffffffffffffffffff16815260200190815260200160002060000160016101000a81548160ff0219169083151502179055506000600560003373ffffffffffffffffffffffffffffffffffffffff1673ffffffffffffffffffffffffffffffffffffffff16815260200190815260200160002060000160026101000a81548160ff021916908315150217905550565b600460009054906101000a900473ffffffffffffffffffffffffffffffffffffffff1681565b60025481565b60005481565b600460009054906101000a900473ffffffffffffffffffffffffffffffffffffffff1673ffffffffffffffffffffffffffffffffffffffff163373ffffffffffffffffffffffffffffffffffffffff16141515610bf6576040517f08c379a000000000000000000000000000000000000000000000000000000000815260040180806020018281038252601f8152602001807f6f6e6c792074686520636f6d70616e792063616e206765742070726f6669740081525060200191505060405180910390fd5b670de0b6b3a764000081023073ffffffffffffffffffffffffffffffffffffffff163110151515610c8f576040517f08c379a00000000000000000000000000000000000000000000000000000000081526004018080602001828103825260118152602001807f496e73756666696369656e742066756e6400000000000000000000000000000081525060200191505060405180910390fd5b3373ffffffffffffffffffffffffffffffffffffffff166108fc670de0b6b3a764000083029081150290604051600060405180830381858888f19350505050158015610cdf573d6000803e3d6000fd5b5050565b600360009054906101000a900473ffffffffffffffffffffffffffffffffffffffff1673ffffffffffffffffffffffffffffffffffffffff163373ffffffffffffffffffffffffffffffffffffffff16141515610d8b576040517f08c379a0000000000000000000000000000000000000000000000000000000008152600401808060200182810382526039815260200180610e466039913960400191505060405180910390fd5b6001600560008373ffffffffffffffffffffffffffffffffffffffff1673ffffffffffffffffffffffffffffffffffffffff16815260200190815260200160002060000160016101000a81548160ff0219169083151502179055505056fe496e73756666696369656e742066756e642c20706c6561736520636f6e746163742074686520696e737572616e636520636f6d70616e79596f75206861766520616c726561647920676f742074686520636f6d70656e736174696f6e6f6e6c792074686520617574686f72697479206167656e63792063616e206a75646765207768657468657220746f20636f6d70656e736174655468652076616c7565206f66207472616e73616374696f6e2073686f756c64206d6174636820746865207072696365596f75206861766520616c726561647920676f7420612076616c696420696e737572616e6365a165627a7a72305820b3717d3d3aff9a70dcbd118a552992b74daaf16db59e3138cab9fd583ca11a3b0029",
  "source": "pragma solidity ^0.5.0;\r\n\r\ncontract insurance\r\n{\r\n    uint public price;          // count in eth\r\n    uint public compensation;   // count in eth\r\n    uint public validPeriod;    // count in day\r\n    address public authorityAgency;\r\n    address payable public company;\r\n\r\n    struct Client\r\n    {\r\n        bool isPurchased;\r\n        bool shouldCompensate;\r\n        bool isCompensated;\r\n        uint purchasedTime;\r\n    }\r\n\r\n    mapping(address => Client) public clients;\r\n\r\n\r\n    constructor(uint _price, uint _compensation, uint _validPeriod, address _authorityAgency) public payable\r\n    {\r\n        price = _price;\r\n        compensation = _compensation;\r\n        validPeriod = _validPeriod;\r\n        authorityAgency = _authorityAgency;\r\n        company = msg.sender;\r\n    }\r\n\r\n    function refund() public payable\r\n    {\r\n        require (msg.sender == company, \"only the company should refund\");\r\n    }\r\n\r\n    function getProfit(uint amount) public\r\n    {\r\n        require (msg.sender == company, \"only the company can get profit\");\r\n        require (address(this).balance >= amount * 1 ether, \"Insufficient fund\");\r\n        msg.sender.transfer(amount * 1 ether);\r\n    }\r\n\r\n    function authenticateCompensation(address payable beneficiary) public\r\n    {\r\n        require (msg.sender == authorityAgency, \"only the authority agency can judge whether to compensate\");\r\n\r\n        clients[beneficiary].shouldCompensate = true;\r\n    }\r\n\r\n    modifier canPurchase()\r\n    {\r\n        require(clients[msg.sender].isPurchased == false ||\r\n                clients[msg.sender].purchasedTime + validPeriod * 1 days <= now ||\r\n                clients[msg.sender].isCompensated == true, \"You have already got a valid insurance\");\r\n        require(msg.value == price * 1 ether, \"The value of transaction should match the price\");\r\n        _;\r\n    }\r\n\r\n    /// the price is 'price'\r\n    function purchase() public payable canPurchase\r\n    {\r\n        clients[msg.sender].isPurchased = true;\r\n        clients[msg.sender].purchasedTime = now;\r\n        clients[msg.sender].shouldCompensate = false;\r\n        clients[msg.sender].isCompensated = false;\r\n    }\r\n\r\n    function getCompensation() public\r\n    {\r\n        require (clients[msg.sender].shouldCompensate == true, \"You can not get the compensation\");\r\n        require (clients[msg.sender].isCompensated == false, \"You have already got the compensation\");\r\n        require (clients[msg.sender].purchasedTime + validPeriod * 1 days > now, \"Your insurance is out of date\");\r\n        require (address(this).balance >= compensation * 1 ether, \"Insufficient fund, please contact the insurance company\");\r\n\r\n        clients[msg.sender].isCompensated = true;\r\n\r\n        msg.sender.transfer(compensation * 1 ether);\r\n\r\n    }\r\n}\r\n\r\n\r\n",
  "sourcePath": "C:/Users/user/Desktop/blockchain/contracts/insurance.sol",
  "compiler": {
    "name": "solc",
    "version": "0.5.2+commit.1df8f40c.Emscripten.clang"
  },
  "schemaVersion": "3.0.0",
  "updatedAt": "2018-12-29T14:27:20.723Z",
  "devdoc": {
    "methods": {}
  },
  "userdoc": {
    "methods": {
      "purchase()": {
        "notice": "the price is 'price'"
      }
    }
  }
}